{
  "abi": [
    {
      "type": "constructor",
      "inputs": [
        {
          "name": "initialOwner",
          "type": "address",
          "internalType": "address"
        }
      ],
      "stateMutability": "nonpayable"
    },
    {
      "type": "function",
      "name": "_name",
      "inputs": [],
      "outputs": [
        {
          "name": "",
          "type": "string",
          "internalType": "string"
        }
      ],
      "stateMutability": "view"
    },
    {
      "type": "function",
      "name": "_symbol",
      "inputs": [],
      "outputs": [
        {
          "name": "",
          "type": "string",
          "internalType": "string"
        }
      ],
      "stateMutability": "view"
    },
    {
      "type": "function",
      "name": "allowance",
      "inputs": [
        {
          "name": "owner",
          "type": "address",
          "internalType": "address"
        },
        {
          "name": "spender",
          "type": "address",
          "internalType": "address"
        }
      ],
      "outputs": [
        {
          "name": "",
          "type": "uint256",
          "internalType": "uint256"
        }
      ],
      "stateMutability": "view"
    },
    {
      "type": "function",
      "name": "approve",
      "inputs": [
        {
          "name": "spender",
          "type": "address",
          "internalType": "address"
        },
        {
          "name": "value",
          "type": "uint256",
          "internalType": "uint256"
        }
      ],
      "outputs": [
        {
          "name": "",
          "type": "bool",
          "internalType": "bool"
        }
      ],
      "stateMutability": "nonpayable"
    },
    {
      "type": "function",
      "name": "balanceOf",
      "inputs": [
        {
          "name": "account",
          "type": "address",
          "internalType": "address"
        }
      ],
      "outputs": [
        {
          "name": "",
          "type": "uint256",
          "internalType": "uint256"
        }
      ],
      "stateMutability": "view"
    },
    {
      "type": "function",
      "name": "burn",
      "inputs": [
        {
          "name": "_amount",
          "type": "uint256",
          "internalType": "uint256"
        }
      ],
      "outputs": [],
      "stateMutability": "nonpayable"
    },
    {
      "type": "function",
      "name": "decimals",
      "inputs": [],
      "outputs": [
        {
          "name": "",
          "type": "uint8",
          "internalType": "uint8"
        }
      ],
      "stateMutability": "view"
    },
    {
      "type": "function",
      "name": "mint",
      "inputs": [
        {
          "name": "_amount",
          "type": "uint256",
          "internalType": "uint256"
        }
      ],
      "outputs": [],
      "stateMutability": "nonpayable"
    },
    {
      "type": "function",
      "name": "name",
      "inputs": [],
      "outputs": [
        {
          "name": "",
          "type": "string",
          "internalType": "string"
        }
      ],
      "stateMutability": "view"
    },
    {
      "type": "function",
      "name": "owner",
      "inputs": [],
      "outputs": [
        {
          "name": "",
          "type": "address",
          "internalType": "address"
        }
      ],
      "stateMutability": "view"
    },
    {
      "type": "function",
      "name": "renounceOwnership",
      "inputs": [],
      "outputs": [],
      "stateMutability": "nonpayable"
    },
    {
      "type": "function",
      "name": "symbol",
      "inputs": [],
      "outputs": [
        {
          "name": "",
          "type": "string",
          "internalType": "string"
        }
      ],
      "stateMutability": "view"
    },
    {
      "type": "function",
      "name": "totalSupply",
      "inputs": [],
      "outputs": [
        {
          "name": "",
          "type": "uint256",
          "internalType": "uint256"
        }
      ],
      "stateMutability": "view"
    },
    {
      "type": "function",
      "name": "transfer",
      "inputs": [
        {
          "name": "to",
          "type": "address",
          "internalType": "address"
        },
        {
          "name": "value",
          "type": "uint256",
          "internalType": "uint256"
        }
      ],
      "outputs": [
        {
          "name": "",
          "type": "bool",
          "internalType": "bool"
        }
      ],
      "stateMutability": "nonpayable"
    },
    {
      "type": "function",
      "name": "transferFrom",
      "inputs": [
        {
          "name": "from",
          "type": "address",
          "internalType": "address"
        },
        {
          "name": "to",
          "type": "address",
          "internalType": "address"
        },
        {
          "name": "value",
          "type": "uint256",
          "internalType": "uint256"
        }
      ],
      "outputs": [
        {
          "name": "",
          "type": "bool",
          "internalType": "bool"
        }
      ],
      "stateMutability": "nonpayable"
    },
    {
      "type": "function",
      "name": "transferOwnership",
      "inputs": [
        {
          "name": "newOwner",
          "type": "address",
          "internalType": "address"
        }
      ],
      "outputs": [],
      "stateMutability": "nonpayable"
    },
    {
      "type": "event",
      "name": "Approval",
      "inputs": [
        {
          "name": "owner",
          "type": "address",
          "indexed": true,
          "internalType": "address"
        },
        {
          "name": "spender",
          "type": "address",
          "indexed": true,
          "internalType": "address"
        },
        {
          "name": "value",
          "type": "uint256",
          "indexed": false,
          "internalType": "uint256"
        }
      ],
      "anonymous": false
    },
    {
      "type": "event",
      "name": "Burn",
      "inputs": [
        {
          "name": "amount",
          "type": "uint256",
          "indexed": true,
          "internalType": "uint256"
        }
      ],
      "anonymous": false
    },
    {
      "type": "event",
      "name": "Mint",
      "inputs": [
        {
          "name": "amount",
          "type": "uint256",
          "indexed": true,
          "internalType": "uint256"
        }
      ],
      "anonymous": false
    },
    {
      "type": "event",
      "name": "OwnershipTransferred",
      "inputs": [
        {
          "name": "previousOwner",
          "type": "address",
          "indexed": true,
          "internalType": "address"
        },
        {
          "name": "newOwner",
          "type": "address",
          "indexed": true,
          "internalType": "address"
        }
      ],
      "anonymous": false
    },
    {
      "type": "event",
      "name": "Transfer",
      "inputs": [
        {
          "name": "from",
          "type": "address",
          "indexed": true,
          "internalType": "address"
        },
        {
          "name": "to",
          "type": "address",
          "indexed": true,
          "internalType": "address"
        },
        {
          "name": "value",
          "type": "uint256",
          "indexed": false,
          "internalType": "uint256"
        }
      ],
      "anonymous": false
    },
    {
      "type": "error",
      "name": "ERC20InsufficientAllowance",
      "inputs": [
        {
          "name": "spender",
          "type": "address",
          "internalType": "address"
        },
        {
          "name": "allowance",
          "type": "uint256",
          "internalType": "uint256"
        },
        {
          "name": "needed",
          "type": "uint256",
          "internalType": "uint256"
        }
      ]
    },
    {
      "type": "error",
      "name": "ERC20InsufficientBalance",
      "inputs": [
        {
          "name": "sender",
          "type": "address",
          "internalType": "address"
        },
        {
          "name": "balance",
          "type": "uint256",
          "internalType": "uint256"
        },
        {
          "name": "needed",
          "type": "uint256",
          "internalType": "uint256"
        }
      ]
    },
    {
      "type": "error",
      "name": "ERC20InvalidApprover",
      "inputs": [
        {
          "name": "approver",
          "type": "address",
          "internalType": "address"
        }
      ]
    },
    {
      "type": "error",
      "name": "ERC20InvalidReceiver",
      "inputs": [
        {
          "name": "receiver",
          "type": "address",
          "internalType": "address"
        }
      ]
    },
    {
      "type": "error",
      "name": "ERC20InvalidSender",
      "inputs": [
        {
          "name": "sender",
          "type": "address",
          "internalType": "address"
        }
      ]
    },
    {
      "type": "error",
      "name": "ERC20InvalidSpender",
      "inputs": [
        {
          "name": "spender",
          "type": "address",
          "internalType": "address"
        }
      ]
    },
    {
      "type": "error",
      "name": "OwnableInvalidOwner",
      "inputs": [
        {
          "name": "owner",
          "type": "address",
          "internalType": "address"
        }
      ]
    },
    {
      "type": "error",
      "name": "OwnableUnauthorizedAccount",
      "inputs": [
        {
          "name": "account",
          "type": "address",
          "internalType": "address"
        }
      ]
    }
  ],
  "bytecode": {
    "object": "0x60c06040526008608090815267263aa63aa1b7b4b760c11b60a052600690620000299082620002fb565b506040805180820190915260038152624c4c4360e81b6020820152600790620000539082620002fb565b5034801562000060575f80fd5b5060405162000e3a38038062000e3a8339810160408190526200008391620003c3565b806006805462000093906200026f565b80601f0160208091040260200160405190810160405280929190818152602001828054620000c1906200026f565b8015620001105780601f10620000e65761010080835404028352916020019162000110565b820191905f5260205f20905b815481529060010190602001808311620000f257829003601f168201915b50505050506007805462000124906200026f565b80601f016020809104026020016040519081016040528092919081815260200182805462000152906200026f565b8015620001a15780601f106200017757610100808354040283529160200191620001a1565b820191905f5260205f20905b8154815290600101906020018083116200018357829003601f168201915b50505050508160039081620001b79190620002fb565b506004620001c68282620002fb565b5050506001600160a01b038116620001f757604051631e4fbdf760e01b81525f600482015260240160405180910390fd5b62000202816200020a565b5050620003f2565b600580546001600160a01b038381166001600160a01b0319831681179093556040519116919082907f8be0079c531659141344cd1fd0a4f28419497f9722a3daafe3b4186f6b6457e0905f90a35050565b634e487b7160e01b5f52604160045260245ffd5b600181811c908216806200028457607f821691505b602082108103620002a357634e487b7160e01b5f52602260045260245ffd5b50919050565b601f821115620002f6575f81815260208120601f850160051c81016020861015620002d15750805b601f850160051c820191505b81811015620002f257828155600101620002dd565b5050505b505050565b81516001600160401b038111156200031757620003176200025b565b6200032f816200032884546200026f565b84620002a9565b602080601f83116001811462000365575f84156200034d5750858301515b5f19600386901b1c1916600185901b178555620002f2565b5f85815260208120601f198616915b82811015620003955788860151825594840194600190910190840162000374565b5085821015620003b357878501515f19600388901b60f8161c191681555b5050505050600190811b01905550565b5f60208284031215620003d4575f80fd5b81516001600160a01b0381168114620003eb575f80fd5b9392505050565b610a3a80620004005f395ff3fe608060405234801561000f575f80fd5b50600436106100fb575f3560e01c80638da5cb5b11610093578063b09f126611610063578063b09f126614610202578063d28d88521461020a578063dd62ed3e14610212578063f2fde38b1461024a575f80fd5b80638da5cb5b146101b957806395d89b41146101d4578063a0712d68146101dc578063a9059cbb146101ef575f80fd5b8063313ce567116100ce578063313ce5671461016557806342966c681461017457806370a0823114610189578063715018a6146101b1575f80fd5b806306fdde03146100ff578063095ea7b31461011d57806318160ddd1461014057806323b872dd14610152575b5f80fd5b61010761025d565b604051610114919061087e565b60405180910390f35b61013061012b3660046108e4565b6102ed565b6040519015158152602001610114565b6002545b604051908152602001610114565b61013061016036600461090c565b610306565b60405160128152602001610114565b610187610182366004610945565b610329565b005b61014461019736600461095c565b6001600160a01b03165f9081526020819052604090205490565b610187610368565b6005546040516001600160a01b039091168152602001610114565b61010761037b565b6101876101ea366004610945565b61038a565b6101306101fd3660046108e4565b6103c9565b6101076103d6565b610107610462565b61014461022036600461097c565b6001600160a01b039182165f90815260016020908152604080832093909416825291909152205490565b61018761025836600461095c565b61046f565b60606003805461026c906109ad565b80601f0160208091040260200160405190810160405280929190818152602001828054610298906109ad565b80156102e35780601f106102ba576101008083540402835291602001916102e3565b820191905f5260205f20905b8154815290600101906020018083116102c657829003601f168201915b5050505050905090565b5f336102fa8185856104b1565b60019150505b92915050565b5f336103138582856104c3565b61031e85858561053f565b506001949350505050565b61033161059c565b61033b33826105c9565b60405181907fb90306ad06b2a6ff86ddc9327db583062895ef6540e62dc50add009db5b356eb905f90a250565b61037061059c565b6103795f610601565b565b60606004805461026c906109ad565b61039261059c565b61039c3382610652565b60405181907f07883703ed0e86588a40d76551c92f8a4b329e3bf19765e0e6749473c1a84665905f90a250565b5f336102fa81858561053f565b600780546103e3906109ad565b80601f016020809104026020016040519081016040528092919081815260200182805461040f906109ad565b801561045a5780601f106104315761010080835404028352916020019161045a565b820191905f5260205f20905b81548152906001019060200180831161043d57829003601f168201915b505050505081565b600680546103e3906109ad565b61047761059c565b6001600160a01b0381166104a557604051631e4fbdf760e01b81525f60048201526024015b60405180910390fd5b6104ae81610601565b50565b6104be8383836001610686565b505050565b6001600160a01b038381165f908152600160209081526040808320938616835292905220545f19811015610539578181101561052b57604051637dc7a0d960e11b81526001600160a01b0384166004820152602481018290526044810183905260640161049c565b61053984848484035f610686565b50505050565b6001600160a01b03831661056857604051634b637e8f60e11b81525f600482015260240161049c565b6001600160a01b0382166105915760405163ec442f0560e01b81525f600482015260240161049c565b6104be838383610758565b6005546001600160a01b031633146103795760405163118cdaa760e01b815233600482015260240161049c565b6001600160a01b0382166105f257604051634b637e8f60e11b81525f600482015260240161049c565b6105fd825f83610758565b5050565b600580546001600160a01b038381166001600160a01b0319831681179093556040519116919082907f8be0079c531659141344cd1fd0a4f28419497f9722a3daafe3b4186f6b6457e0905f90a35050565b6001600160a01b03821661067b5760405163ec442f0560e01b81525f600482015260240161049c565b6105fd5f8383610758565b6001600160a01b0384166106af5760405163e602df0560e01b81525f600482015260240161049c565b6001600160a01b0383166106d857604051634a1406b160e11b81525f600482015260240161049c565b6001600160a01b038085165f908152600160209081526040808320938716835292905220829055801561053957826001600160a01b0316846001600160a01b03167f8c5be1e5ebec7d5bd14f71427d1e84f3dd0314c0f7b2291e5b200ac8c7c3b9258460405161074a91815260200190565b60405180910390a350505050565b6001600160a01b038316610782578060025f82825461077791906109e5565b909155506107f29050565b6001600160a01b0383165f90815260208190526040902054818110156107d45760405163391434e360e21b81526001600160a01b0385166004820152602481018290526044810183905260640161049c565b6001600160a01b0384165f9081526020819052604090209082900390555b6001600160a01b03821661080e5760028054829003905561082c565b6001600160a01b0382165f9081526020819052604090208054820190555b816001600160a01b0316836001600160a01b03167fddf252ad1be2c89b69c2b068fc378daa952ba7f163c4a11628f55a4df523b3ef8360405161087191815260200190565b60405180910390a3505050565b5f6020808352835180828501525f5b818110156108a95785810183015185820160400152820161088d565b505f604082860101526040601f19601f8301168501019250505092915050565b80356001600160a01b03811681146108df575f80fd5b919050565b5f80604083850312156108f5575f80fd5b6108fe836108c9565b946020939093013593505050565b5f805f6060848603121561091e575f80fd5b610927846108c9565b9250610935602085016108c9565b9150604084013590509250925092565b5f60208284031215610955575f80fd5b5035919050565b5f6020828403121561096c575f80fd5b610975826108c9565b9392505050565b5f806040838503121561098d575f80fd5b610996836108c9565b91506109a4602084016108c9565b90509250929050565b600181811c908216806109c157607f821691505b6020821081036109df57634e487b7160e01b5f52602260045260245ffd5b50919050565b8082018082111561030057634e487b7160e01b5f52601160045260245ffdfea26469706673582212200d1c1ffcb645287d014a0e1ec1506c5f77eb4af6182ecd36de837653eca0881464736f6c63430008140033",
    "linkReferences": {}
  },
  "methodIdentifiers": {
    "_name()": "d28d8852",
    "_symbol()": "b09f1266",
    "allowance(address,address)": "dd62ed3e",
    "approve(address,uint256)": "095ea7b3",
    "balanceOf(address)": "70a08231",
    "burn(uint256)": "42966c68",
    "decimals()": "313ce567",
    "mint(uint256)": "a0712d68",
    "name()": "06fdde03",
    "owner()": "8da5cb5b",
    "renounceOwnership()": "715018a6",
    "symbol()": "95d89b41",
    "totalSupply()": "18160ddd",
    "transfer(address,uint256)": "a9059cbb",
    "transferFrom(address,address,uint256)": "23b872dd",
    "transferOwnership(address)": "f2fde38b"
  },
  "id": 37
}