{
  "abi": [
    {
      "type": "constructor",
      "inputs": [
        {
          "name": "_merkleRoot",
          "type": "bytes32",
          "internalType": "bytes32"
        },
        {
          "name": "_tokenAddress",
          "type": "address",
          "internalType": "contract IERC20"
        }
      ],
      "stateMutability": "nonpayable"
    },
    {
      "type": "function",
      "name": "claim",
      "inputs": [
        {
          "name": "account",
          "type": "address",
          "internalType": "address"
        },
        {
          "name": "amount",
          "type": "uint256",
          "internalType": "uint256"
        },
        {
          "name": "merkleProof",
          "type": "bytes32[]",
          "internalType": "bytes32[]"
        }
      ],
      "outputs": [],
      "stateMutability": "nonpayable"
    },
    {
      "type": "function",
      "name": "getAirDropTokenAddress",
      "inputs": [],
      "outputs": [
        {
          "name": "",
          "type": "address",
          "internalType": "contract IERC20"
        }
      ],
      "stateMutability": "view"
    },
    {
      "type": "function",
      "name": "getClaimState",
      "inputs": [
        {
          "name": "account",
          "type": "address",
          "internalType": "address"
        }
      ],
      "outputs": [
        {
          "name": "",
          "type": "bool",
          "internalType": "bool"
        }
      ],
      "stateMutability": "view"
    },
    {
      "type": "function",
      "name": "getMerkleRoot",
      "inputs": [],
      "outputs": [
        {
          "name": "",
          "type": "bytes32",
          "internalType": "bytes32"
        }
      ],
      "stateMutability": "view"
    },
    {
      "type": "function",
      "name": "hasClaimed",
      "inputs": [
        {
          "name": "",
          "type": "address",
          "internalType": "address"
        }
      ],
      "outputs": [
        {
          "name": "",
          "type": "bool",
          "internalType": "bool"
        }
      ],
      "stateMutability": "view"
    },
    {
      "type": "function",
      "name": "lulucoin",
      "inputs": [],
      "outputs": [
        {
          "name": "",
          "type": "address",
          "internalType": "contract IERC20"
        }
      ],
      "stateMutability": "view"
    },
    {
      "type": "event",
      "name": "LLCAirDrop__Claimed",
      "inputs": [
        {
          "name": "account",
          "type": "address",
          "indexed": false,
          "internalType": "address"
        },
        {
          "name": "amount",
          "type": "uint256",
          "indexed": false,
          "internalType": "uint256"
        }
      ],
      "anonymous": false
    },
    {
      "type": "error",
      "name": "LLCAirDrop__AlreadyClaimed",
      "inputs": []
    },
    {
      "type": "error",
      "name": "LLCAirDrop__InvaildAmount",
      "inputs": []
    },
    {
      "type": "error",
      "name": "LLCAirDrop__InvalidProof",
      "inputs": []
    },
    {
      "type": "error",
      "name": "SafeERC20FailedOperation",
      "inputs": [
        {
          "name": "token",
          "type": "address",
          "internalType": "address"
        }
      ]
    }
  ],
  "bytecode": {
    "object": "0x60c060405234801561000f575f80fd5b506040516106e63803806106e683398101604081905261002e91610045565b60a0919091526001600160a01b031660805261007f565b5f8060408385031215610056575f80fd5b825160208401519092506001600160a01b0381168114610074575f80fd5b809150509250929050565b60805160a05161062d6100b95f395f818160bd01526102da01525f818160660152818160eb015281816101890152610371015261062d5ff3fe608060405234801561000f575f80fd5b5060043610610060575f3560e01c806312795476146100645780633d13f874146100a357806349590657146100b85780636faccb99146100e657806373b2e80e1461010d578063e767170c1461013f575b5f80fd5b7f00000000000000000000000000000000000000000000000000000000000000005b6040516001600160a01b0390911681526020015b60405180910390f35b6100b66100b136600461050c565b61016a565b005b6040517f0000000000000000000000000000000000000000000000000000000000000000815260200161009a565b6100867f000000000000000000000000000000000000000000000000000000000000000081565b61012f61011b36600461058f565b5f6020819052908152604090205460ff1681565b604051901515815260200161009a565b61012f61014d36600461058f565b6001600160a01b03165f9081526020819052604090205460ff1690565b8215806101fc57506040516370a0823160e01b815230600482015283907f00000000000000000000000000000000000000000000000000000000000000006001600160a01b0316906370a0823190602401602060405180830381865afa1580156101d6573d5f803e3d5ffd5b505050506040513d601f19601f820116820180604052508101906101fa91906105a8565b105b1561021a57604051634229928360e01b815260040160405180910390fd5b6001600160a01b0384165f9081526020819052604090205460ff1615610253576040516373273d8360e11b815260040160405180910390fd5b604080516001600160a01b03861660208201529081018490525f9060600160408051601f19818403018152828252805160209182012090830152016040516020818303038152906040528051906020012090506103058383808060200260200160405190810160405280939291908181526020018383602002808284375f920191909152507f000000000000000000000000000000000000000000000000000000000000000092508591506103c19050565b61032257604051637fa7efa160e01b815260040160405180910390fd5b604080516001600160a01b0387168152602081018690527fefd4a71bc34d21eba6a66dab4f87098723be3961bb7a436d3c1c7e66a62f0764910160405180910390a16103986001600160a01b037f00000000000000000000000000000000000000000000000000000000000000001686866103d6565b5050506001600160a01b039091165f908152602081905260409020805460ff1916600117905550565b5f826103cd8584610414565b14949350505050565b6103e38383836001610460565b61040f57604051635274afe760e01b81526001600160a01b038416600482015260240160405180910390fd5b505050565b5f81815b84518110156104585761044482868381518110610437576104376105bf565b60200260200101516104c2565b915080610450816105d3565b915050610418565b509392505050565b60405163a9059cbb60e01b5f8181526001600160a01b038616600452602485905291602083604481808b5af1925060015f511483166104b65783831516156104aa573d5f823e3d81fd5b5f873b113d1516831692505b60405250949350505050565b5f8183106104dc575f8281526020849052604090206104ea565b5f8381526020839052604090205b9392505050565b80356001600160a01b0381168114610507575f80fd5b919050565b5f805f806060858703121561051f575f80fd5b610528856104f1565b935060208501359250604085013567ffffffffffffffff8082111561054b575f80fd5b818701915087601f83011261055e575f80fd5b81358181111561056c575f80fd5b8860208260051b8501011115610580575f80fd5b95989497505060200194505050565b5f6020828403121561059f575f80fd5b6104ea826104f1565b5f602082840312156105b8575f80fd5b5051919050565b634e487b7160e01b5f52603260045260245ffd5b5f600182016105f057634e487b7160e01b5f52601160045260245ffd5b506001019056fea26469706673582212205abe699304da655cdd6c7432c6357cb1b91abfdde47ae7f639896a402d12c0fe64736f6c63430008140033",
    "linkReferences": {}
  },
  "methodIdentifiers": {
    "claim(address,uint256,bytes32[])": "3d13f874",
    "getAirDropTokenAddress()": "12795476",
    "getClaimState(address)": "e767170c",
    "getMerkleRoot()": "49590657",
    "hasClaimed(address)": "73b2e80e",
    "lulucoin()": "6faccb99"
  },
  "id": 34
}